:020000040800F2
:1000000000000120DD2C00082D2C00082F2C0008FA
:10001000312C0008332C0008352C000800000000AB
:10002000000000000000000000000000372C000865
:10003000392C0008000000003B2C00083D2C000873
:100040002D2D0008452C00082D2D00082D2D000811
:100050002D2D00082D2D00082D2D00082D2D000818
:100060002D2D00082D2D00082D2D00082D2D000808
:100070002D2D00082D2D00082D2D00084D2C0008D9
:100080002D2D00082D2D00082D2D00082D2D0008E8
:100090002D2D00082D2D00082D2D00082D2D0008D8
:1000A0005D2C00086D2C00087D2C00088D2C0008AC
:1000B0002D2D00082D2D00082D2D00082D2D0008B8
:1000C0002D2D00082D2D00082D2D00082D2D0008A8
:1000D0009D2C00082D2D00082D2D00082D2D000829
:1000E000AD2C00082D2D00082D2D00082D2D000809
:1000F0002D2D00082D2D00082D2D00082D2D000878
:100100002D2D000800000000000000002D2D00082B
:100110002D2D00082D2D00082D2D00082D2D000857
:100120002D2D00082D2D00082D2D00082D2D000847
:100130002D2D00082D2D00080000000000000000FB
:100140002D2D00082D2D00082D2D00080000000089
:10015000000000000000000000000000000000009F
:100160002D2D00082D2D00082D2D00082D2D000807
:100170002D2D00082D2D00082D2D00082D2D0008F7
:100180002D2D00082D2D00080000000000000000AB
:040190002D2D000809
:1001940010B5054C237833B9044B13B10448AFF3BD
:1001A40000800123237010BD100000200000000017
:1001B400882D000808B5034B1BB103490348AFF36E
:1001C400008008BD0000000014000020882D0008F5
:1001D40010B504460E4B18784FF47A73B3FBF0F362
:1001E4000C4A1068B0FBF3F000F0A2F868B90F2CC9
:1001F40001D901200AE0002221464FF0FF3000F02F
:1002040055F8034B5C60002000E0012010BD00BFE6
:10021400000000200C00002008B5074A136843F0D2
:1002240010031360032000F02FF80020FFF7D0FF25
:1002340002F0C8FB002008BD00200240034A1168F8
:10024400034B1B780B441360704700BF90030020DE
:1002540000000020014B1868704700BF9003002085
:1002640038B50446FFF7F6FF0546B4F1FF3F02D068
:10027400044B1B781C44FFF7EDFF401BA042FAD34C
:1002840038BD00BF00000020074AD36823F4E063B0
:100294001B041B0C000200F4E060184340F0BF6034
:1002A40040F40030D060704700ED00E030B4174BEC
:1002B400DB68C3F30223C3F10704042C28BF04241E
:1002C4001D1D062D18D9033B4FF0FF3505FA04F424
:1002D40021EA0401994005FA03F322EA03031943CE
:1002E40000280BDB0901C9B200F1604000F5614050
:1002F40080F8001330BC70470023E5E700F00F00DE
:100304000901C9B2024B1954F4E700BF00ED00E043
:1003140014ED00E0002807DB00F01F024009012370
:100324009340024A42F82030704700BF00E100E0E9
:100334000138B0F1807F0AD2064B5860064AF0219A
:1003440082F823100020986007221A607047012069
:10035400704700BF10E000E000ED00E070B4066CF0
:10036400C56B0124B4406C60046863604368102B5F
:1003740005D0036899600368DA6070BC704703684D
:100384009A600368D960F8E702680C4B9A420AD96C
:100394000B4B13440B4AA2FB03231B099B0003646E
:1003A400094BC3637047094B1344064AA2FB03235A
:1003B4001B099B000364064BC36370470704024098
:1003C400F8FBFDBFCDCCCCCC00040240F8FFFDBF50
:1003D4000000024020B310B50446022380F8213007
:1003E40001680A6822F47F5222F030024368806870
:1003F4000343E06803432069034360690343A0693E
:100404000343E069034313430B602046FFF7BCFF3B
:100414000020A063012384F8213084F8200010BD5B
:100424000120704738B590F82040012C32D00124C7
:1004340080F8204090F82140012C04D0002380F85B
:100444002030022038BD0446022084F82100002018
:10045400A0632568286820F0010028602046FFF783
:100464007DFFE36A5BB12268136843F00E031360F7
:100474002268136843F0010313600020E2E7226856
:10048400136843F00A0313602268136823F004031B
:100494001360EDE70220D5E708B590F82130022B70
:1004A40003D004238363012008BD0268136823F08A
:1004B4000E0313600268136823F001031360036CD6
:1004C400C16B012202FA03F34B6080F82120002360
:1004D40080F82030436B13B198470020E4E70020F4
:1004E400E2E738B5C36B1A6804682568016C042315
:1004F4008B40134213D015F0040F10D0236813F06F
:10050400200F03D1236823F004032360016CC26B22
:1005140004238B405360C36A03B1984738BD022358
:100524008B4013421AD015F0020F17D0236813F032
:10053400200F06D1236823F00A032360012380F8E7
:100544002130016CC26B02238B405360002380F87E
:100554002030836A002BE1D09847DFE7082303FAB1
:1005640001F11142DAD015F0080FD7D0236823F037
:100574000E032360026CC16B012303FA02F24A608A
:10058400836380F82130002380F82030036B002B34
:10059400C4D09847C2E790F821007047F0B482B005
:1005A400002336E0062400E00024B4403C43023536
:1005B400614E46F82540614C2568D44304EA05069B
:1005C4004F6817F4803F01D042EA05065B4D2E6068
:1005D4006D6804EA05064F6817F4003F01D042EA4B
:1005E4000506564D6E60AD6804EA05064F6817F4BB
:1005F400801F01D042EA0506504DAE60ED682C40E4
:100604004E6816F4001F01D042EA05044B4AD46038
:1006140001330A6832FA03F400F08B8001249C4011
:100624002240F5D04D68022D01D0122D10D1DE08E4
:10063400083650F826C003F00705AF000F25BD406B
:100644002CEA050C0D69BD4045EA0C0540F826501E
:1006540006685F000325BD40ED4305EA060C4E68BD
:1006640006F00306BE4046EA0C0606604E6806F134
:10067400FF3CBCF1010F03D9112E01D0122E10D171
:10068400866805EA060CCE68BE4046EA0C0686601B
:10069400466826EA04044E68C6F300169E402643C4
:1006A4004660C46825408C68BC402C43C4604C68D8
:1006B40014F0805FACD0224CA56945F00105A5611A
:1006C400A46904F001040194019C9D08AE1C1A4C19
:1006D40054F8267003F00304A6000F24B44027EA5C
:1006E4000407B0F1904F3FF45FAF164CA04216D010
:1006F40004F58064A04214D004F58064A04212D0B2
:1007040004F58064A04210D004F58064A0420ED0A9
:1007140004F58064A0423FF445AF072445E7012473
:1007240043E7022441E703243FE704243DE705248B
:100734003BE702B0F0BC70470000014000040140F8
:1007440000100240000400480369194201D100204E
:100754007047012070470AB9816270478161704710
:1007640008B5054B5B69034200D108BD024B5861D3
:1007740001F07CFEF9E700BF0004014003689A69B8
:1007840012F0020F01D000229A6203689A6912F0F3
:10079400010F03D19A6942F001029A61704770B463
:1007A400039E05686868740D04F4806444F07F74E3
:1007B40044F4583444F47F7444F0030420EA0400FD
:1007C400C1F3090141EA024119433143014369601C
:1007D40070BC704770B504460D46164603689B69A5
:1007E40013F0100F1CD023689A6912F0200F19D14E
:1007F400B5F1FF3FF7D0FFF72DFD801BA84201D8CC
:10080400002DF0D1636C43F020036364202384F84B
:100814004130002384F8423084F84030012020E045
:1008240000201EE01022DA6123682025DD612046C5
:10083400FFF7A4FF2268536823F0FF7323F48B337C
:1008440023F4FF7323F001035360636C43F0040348
:10085400636484F84150002384F8423084F84030C3
:10086400012070BD70B504460D46164623689B6989
:1008740013F0020F1DD1324629462046FFF7AAFF86
:10088400C8B9B5F1FF3FF1D0FFF7E4FC801BA842E3
:1008940001D8002DEAD1636C43F020036364202364
:1008A40084F84130002384F8423084F84030012039
:1008B40000E0002070BD0120FCE7F8B505460F46B6
:1008C40016461C462B689B6937EA03030CBF0123B9
:1008D4000023B34218D1B4F1FF3FF3D0FFF7BAFCC1
:1008E400069BC01AA04201D8002CEBD16B6C43F0DC
:1008F40020036B64202385F84130002385F84230BF
:1009040085F84030012000E00020F8BD70B50546B0
:100914000C4616462B689B6913F0200F1AD13246F9
:1009240021462846FFF756FFB0B9FFF793FC801B1A
:10093400A04201D8002CEDD16B6C43F020036B6412
:10094400202385F84130002385F8423085F8403073
:10095400012070BD0020FCE70120FAE7002859D0EF
:1009640010B5044690F84130002B43D0242384F87A
:1009740041302268136823F001031360636822681E
:1009840023F0706313612268936823F40043936037
:10099400E368012B33D0A368226843F404439360D3
:1009A400E368022B31D02268536843F0007343F4A8
:1009B400004353602268D36823F40043D36023695F
:1009C40062691343A169226843EA0123D360E3699E
:1009D400216A22680B4313602268136843F0010301
:1009E400136000206064202384F84130206384F87D
:1009F400420010BD80F8403002F006F8B6E7A36864
:100A0400226843F400439360CAE723684FF400620A
:100A14005A60C8E7012070472DE9F04383B090F88D
:100A24004150EDB2202D40F0A48090F84040012CBC
:100A340000F0A480984617460E4604464FF001097C
:100A440080F84090FFF706FC0546009019234A46BB
:100A54004FF400412046FFF730FF002840F090801B
:100A6400212384F84130102384F842300023636446
:100A74006762A4F82A806363638D9BB2FF2B0AD953
:100A8400FF222285424B00934FF08073314620466B
:100A9400FFF785FE18E0628D92B222853C4B0093ED
:100AA4004FF00073D2B231462046FFF778FE0BE0D8
:100AB400628D92B22285002300934FF00073D2B26C
:100AC40031462046FFF76BFE638D9BB2002B33D07B
:100AD4002A460A992046FFF7C5FE002852D1626AC9
:100AE400236812789A62636A01336362638D013BFF
:100AF4009BB26385238D013B9BB22385628D92B2A9
:100B0400002AE1D0002BDFD100950A9B002280212E
:100B14002046FFF7D2FE002836D1638D9BB2FF2B0F
:100B2400C6D9FF222285002300934FF080733146FB
:100B34002046FFF734FEC7E72A460A992046FFF706
:100B4400E5FE034610BB22682021D161206842687B
:100B540022F0FF7222F48B3222F4FF7222F001029F
:100B6400426084F84110002284F8422084F8402036
:100B740000E00223184603B0BDE8F0830223F9E73E
:100B84000123F7E70123F5E70123F3E70123F1E765
:100B94000020008090F84130DBB2202B24D190F863
:100BA4004030012B22D0012380F84030242380F8E8
:100BB40041300268136823F001031360026813686C
:100BC40023F48053136002681368194311600268A8
:100BD400136843F001031360202380F8413000239D
:100BE40080F8403018467047022070470220704752
:100BF40090F84130DBB2202B22D190F84030012B09
:100C040020D0012380F84030242380F8413002684A
:100C1400136823F0010313600268136823F47063FC
:100C240043EA012111600268136843F00103136071
:100C3400202380F84130002380F840301846704764
:100C440002207047022070477047000008B5064B29
:100C54005B6913F4803F00D108BDFFF7F5FF024B39
:100C64004FF480325A61F7E700040140002800F095
:100C7400198370B582B00446036813F0010F3DD0A8
:100C8400B44B5B6803F00C03042B20D0B14B5B68BE
:100C940003F00C03082B13D06368B3F5803F6AD0CC
:100CA400002B40F08D8003F1804303F504331A6870
:100CB40022F480321A601A6822F480221A605FE0FB
:100CC400A44B5B6803F4C033B3F5803FE4D14FF425
:100CD400003393FAA3F39F4B19684FF4003393FA4C
:100CE400A3F3B3FA83F303F01F03012202FA03F31D
:100CF4000B4203D06368002B00F0D682236813F004
:100D0400020F00F0C180934B5B6813F00C0F00F0EE
:100D14009780904B5B6803F00C03082B00F08880ED
:100D2400E368002B00F0EE80012292FAA2F3B3FAFA
:100D340083F303F1845303F584139B001A60FFF7D4
:100D440089FA0546022393FAA3F3824B1968022316
:100D540093FAA3F3B3FA83F303F01F03012202FA15
:100D640003F30B4240F0BF80FFF774FA401B0228E4
:100D7400E8D903209FE2774A136843F48033136071
:100D84006368002B36D0FFF765FA05464FF400334D
:100D940093FAA3F36F4B19684FF4003393FAA3F358
:100DA400B3FA83F303F01F03012202FA03F30B42A5
:100DB400A4D1FFF74FFA401B6428E7D903207AE255
:100DC400B3F5A02F09D0634B1A6822F480321A605D
:100DD4001A6822F480221A60D2E703F18043A3F553
:100DE4003C331A6842F480221A601A6842F4803252
:100DF4001A60C5E7FFF72EFA05464FF4003393FA5D
:100E0400A3F3544B19684FF4003393FAA3F3B3FAE2
:100E140083F303F01F03012202FA03F30B423FF4AE
:100E24006DAFFFF717FA401B6428E6D9032042E2AE
:100E3400484B5B6803F4C033B3F5004F7FF470AFE5
:100E4400022393FAA3F3434B1968022393FAA3F3FF
:100E5400B3FA83F303F01F03012202FA03F30B42F4
:100E640004D0E368934201D0012024E239480368A6
:100E740023F0F8032169F82292FAA2F2B2FA82F27C
:100E840001FA02F213430360236813F0080F00F021
:100E94008D806369002B61D0012191FAA1F2B2FA2D
:100EA40082F22D4B13449B001960FFF7D3F90546DA
:100EB400022393FAA3F293FAA3F293FAA3F2254A34
:100EC400516A93FAA3F3B3FA83F303F01F030122E5
:100ED40002FA03F30B4269D1FFF7BCF9401B022865
:100EE400E6D90320E7E11B48036823F0F8032169EE
:100EF400F82292FAA2F2B2FA82F201FA02F213434F
:100F04000360C1E7012393FAA3F3B3FA83F303F174
:100F1400845303F584139B0000221A60FFF79AF9A7
:100F24000546022393FAA3F30A4B1968022393FAA2
:100F3400A3F3B3FA83F303F01F03012202FA03F3CA
:100F44000B42A1D0FFF786F9401B0228E9D9032000
:100F5400B1E100BF0010024020819010012292FAFA
:100F6400A2F2B2FA82F2BF4B13449B0000221A6031
:100F7400FFF770F90546022393FAA3F293FAA3F25A
:100F840093FAA3F2B84A516A93FAA3F3B3FA83F338
:100F940003F01F03012202FA03F30B4206D0FFF70A
:100FA40059F9401B0228E6D9032084E1236813F091
:100FB400040F00F0B380AC4BDB6913F0805F20D1E9
:100FC400A94BDA6942F08052DA61DB6903F080539D
:100FD4000193019B0125A54B1B6813F4807F12D05C
:100FE400A368012B23D073BB03F1804303F50433BF
:100FF4001A6A22F001021A621A6A22F004021A62C0
:101004001AE00025E7E7994A136843F480731360F4
:10101400FFF720F90646954B1B6813F4807FDFD158
:10102400FFF718F9801B6428F5D9032043E18E4AA1
:10103400136A43F001031362A368002B41D0FFF746
:1010440009F906462BE0052B09D0874B1A6A22F0D2
:1010540001021A621A6A22F004021A62ECE7824B55
:101064001A6A42F004021A621A6A42F001021A620F
:10107400E2E77D4B196A022393FAA3F3B3FA83F3ED
:1010840003F01F03012202FA03F3194245D1FFF7CB
:10109400E1F8801B41F28833984200F20781022371
:1010A40093FAA3F293FAA3F3B3FA83F35B0943F03D
:1010B4000203022BDDD0022393FAA3F36A4B596A8D
:1010C400D9E7FFF7C7F8064615E0674B196A02230C
:1010D40093FAA3F3B3FA83F303F01F03012202FA92
:1010E40003F3194219D0FFF7B5F8801B41F2883396
:1010F400984200F2DD80022393FAA3F293FAA3F359
:10110400B3FA83F35B0943F00203022BDDD002231D
:1011140093FAA3F3544B596AD9E7B5BBA369002BDF
:1011240000F0C880504A526802F00C02082A00F00D
:101134009F80022B2FD04FF0807393FAA3F3B3FA5E
:1011440083F303F1845303F584139B0000221A6094
:10115400FFF780F804464FF0007393FAA3F3424B71
:1011640019684FF0007393FAA3F3B3FA83F303F00F
:101174001F03012202FA03F3194271D0FFF76AF840
:10118400001B0228E7D9032095E0374AD36923F0EE
:101194008053D361C2E74FF0807393FAA3F3B3FA99
:1011A40083F303F1845303F584139B0000221A6034
:1011B400FFF750F805464FF0007393FAA3F32A4B58
:1011C40019684FF0007393FAA3F3B3FA83F303F0AF
:1011D4001F03012202FA03F3194206D0FFF73AF87B
:1011E400401B0228E7D9032065E01F4AD36A23F095
:1011F4000F03616A0B43D362536823F47613216AA5
:10120400E06901430B4353604FF0807393FAA3F3F7
:10121400B3FA83F303F1845303F584139B0001228F
:101224001A60FFF717F804464FF0007393FAA3F31C
:101234000D4B19684FF0007393FAA3F3B3FA83F3D9
:1012440003F01F03012202FA03F3194206D1FFF748
:1012540001F8001B0228E7D903202CE000202AE033
:10126400002028E02081901000100240007000400F
:10127400012B22D0134A5368D06A03F4C031E269C7
:10128400914201D0012016E003F47013226A9342C4
:1012940001D001200FE000F00F00636A98420ED0E5
:1012A400012008E001207047012004E0032002E04F
:1012B400032000E0002002B070BD0120FBE7002005
:1012C400F9E700BF0010024010B4184B5C6804F04A
:1012D4000C03082B28D104F470124FF4701393FA02
:1012E400A3F3B3FA83F322FA03F31149C85C0F4B57
:1012F400DB6A03F00F030F2292FAA2F2B2FA82F22F
:10130400D3400B441A7C14F4803F07D1094BB3FB40
:10131400F2F300FB03F05DF8044B7047054BB3FB9D
:10132400F2F300FB03F0F6E70248F4E70010024092
:10133400A02D000800127A00002800F0C18070B5CA
:101344000446614B1B6803F007038B420CD25E4AD0
:10135400136823F007030B431360136803F00703B8
:101364008B4201D0012070BD236813F0020F06D018
:10137400564A536823F0F003A068034353600D46B4
:10138400236813F0010F5AD06368012B2DD0022B70
:1013940040D0022292FAA2F24C4A1068022292FA37
:1013A400A2F2B2FA82F202F01F02012101FA02F261
:1013B400104200F0878045494A6822F00302134333
:1013C4004B60FEF747FF0646404B5B6803F00C0397
:1013D4006268B3EB820F32D0FEF73CFF801B41F210
:1013E40088339842F0D90320BDE74FF4003292FAD3
:1013F400A2F2364A10684FF4003292FAA2F2B2FA1C
:1014040082F202F01F02012101FA02F20242D2D159
:101414000120A8E74FF0007292FAA2F22B4A10685A
:101424004FF0007292FAA2F2B2FA82F202F01F02B4
:10143400012101FA02F21042BDD1012093E7224BAF
:101444001B6803F00703AB420CD91F4A136823F04F
:1014540007032B431360136803F00703AB4201D067
:10146400012080E7236813F0040F06D0174A53685D
:1014740023F4E063E1680B435360236813F0080F1F
:1014840007D0124A536823F46053216943EAC10325
:101494005360FFF719FF0D4B5B6803F0F003F02274
:1014A40092FAA2F2B2FA82F2D340094AD35CD8404B
:1014B400084B1860084B1868FEF78AFE002052E7B4
:1014C4000120704701204EE7002002400010024036
:1014D400C02D00080C00002004000020F0B583B0EB
:1014E4000446036813F4803F48D0A14BDB6913F032
:1014F400805F40F022819E4BDA6942F08052DA61CB
:10150400DB6903F080530193019B0125994B1B6810
:1015140013F4807F00F01381954B1B6A13F440731E
:1015240022D0626802F440729A421DD09048016A47
:1015340021F440764FF4803393FAA3F2B2FA82F2A4
:101544008D4F3A4492004FF0010CC2F800C093FA58
:10155400A3F3B3FA83F33B449B0000221A600662B0
:1015640011F0010F40F00081814A136A23F44073A3
:1015740061680B431362002D40F02881236813F047
:10158400010F06D07A4A136B23F00303A1680B43BF
:101594001363236813F0020F06D0754A136B23F408
:1015A4004033E1680B431363236813F0040F06D040
:1015B4006F4A136B23F4402321690B43136323689D
:1015C40013F0200F06D06A4A136B23F01003E1696D
:1015D4000B431363236813F4003F06D0644A536833
:1015E40023F48003616D0B435360236813F0400FB1
:1015F40006D05F4A136B23F02003216A0B43136365
:10160400236813F4802F06D0594A136B23F0400348
:10161400616A0B431363236813F0080F06D0544A1E
:10162400136B23F4401361690B431363236813F0B2
:10163400100F06D04E4A136B23F44003A1690B43E9
:101644001363236813F4007F06D0494A536823F4D4
:101654000003216B0B435360236813F0800F06D003
:10166400434AD36A23F4F873A16A0B43D362236811
:1016740013F4807F06D03E4AD36A23F47853E16A98
:101684000B43D362236813F4805F06D0384A136B8C
:1016940023F48073616B0B431363236813F4005FBB
:1016A40006D0334A136B23F40073216C0B4313638A
:1016B400236813F4801F06D02D4A136B23F0807324
:1016C400A16B0B431363236813F4001F06D0284A4D
:1016D400136B23F00073E16B0B431363236813F460
:1016E400800F06D0224A136B23F48063616C0B4392
:1016F4001363236813F4000F06D01D4A136B23F4FD
:101704000063A16C0B431363236813F0807F06D03E
:10171400174A136B23F40053E16C0B4313632368E0
:1017240013F0007F59D0124A136B23F40043216D48
:101734000B431363002003B0F0BD0025E6E60D4A19
:10174400136843F480731360FEF784FD0646094B67
:101754001B6813F4807F7FF4DFAEFEF77BFD801BF4
:101764006428F4D90320E6E7FEF774FD06461BE07F
:10177400001002400070004000819010184B196A5C
:10178400022393FAA3F3B3FA83F303F01F030122B2
:1017940002FA03F30B427FF4E7AEFEF75BFD801B16
:1017A40041F28833984216D8022393FAA3F293FAAB
:1017B400A3F3B3FA83F35B0943F00203022BDDD0F6
:1017C400022393FAA3F3064B596AD9E7D36923F0AA
:1017D4008053D361D2E60320ADE70020ABE700BF1E
:1017E40000100240F8B505460F4616461C462B6805
:1017F4009B6837EA03030CBF01230023B34237D0AD
:10180400B4F1FF3FF3D0FEF725FD069BC01AA042BA
:1018140001D2002CEBD12A68536823F0E003536013
:101824006B68B3F5827F0BD0AB6AB3F5005F14D05D
:10183400012385F85D30002385F85C30032018E02F
:10184400AB68B3F5004F02D0B3F5806FECD12A68D2
:10185400136823F040031360E6E72A68136823F44F
:10186400005313602A68136843F400531360DFE7DE
:101874000020F8BDF8B507460C4615461E4602E0A2
:10188400B6F1FF3F0BD13A6893682340AB423BD09B
:10189400B4F5C06FF4D1002DF2D1137BF0E7FEF75D
:1018A400D9FC069BC01AB04201D2002EEBD13A6893
:1018B400536823F0E00353607B68B3F5827F0BD059
:1018C400BB6AB3F5005F14D0012387F85D300023B1
:1018D40087F85C30032018E0BB68B3F5004F02D0F2
:1018E400B3F5806FECD13A68136823F040031360BA
:1018F400E6E73A68136823F4005313603A68136800
:1019040043F400531360DFE70020F8BD70B582B0E4
:1019140004460D46164600920B4600224FF4C05171
:10192400FFF7A8FFB8B900962B4600228021204675
:10193400FFF758FFB8B900962B4600224FF4C06158
:101944002046FFF797FF034650B1236E43F0200370
:101954002366032304E0236E43F02003236603235A
:10196400184602B070BD236E43F0200323660323A0
:10197400F6E7002858D010B504460023836290F897
:101984005D30002B45D0022384F85D302268136853
:1019940023F040031360E368B3F5E06F3ED90022FF
:1019A400B3F5706F04D0B3F5E06F01D00021A162EC
:1019B400216B21B9B3F5E06F33D902232363636844
:1019C400A1680B4321690B4361690B43A16901F4CD
:1019D40000710B43E1690B43216A0B43A06A216840
:1019E40003430B60638B03F00403616A0B43616B75
:1019F4000B43E1680B43216813434B602268D369AE
:101A040023F40063D36100202066012384F85D3051
:101A140010BD80F85C3001F047F8B4E74FF4805211
:101A2400BEE701232363CAE70120704790F85C30C6
:101A3400012B00F0878010B50446012380F85C3048
:101A440090F85D30DBB2012B05D00223002284F82C
:101A54005C20184610BD002970D0002A70D00323E2
:101A640080F85D300023036681638287C287036444
:101A74000365C364A0F84430A0F846308368B3F526
:101A8400004F2AD0636D314ADA62636D304A9A623C
:101A9400636D304A1A63636D00225A632268536887
:101AA40023F480435360E368B3F5E06F04D8636DB7
:101AB4005B69B3F5806F16D02268E38F0C32A16B9B
:101AC400606DFEF7AFFC034620B3236E43F01003B2
:101AD4002366012384F85D30B8E70268136843F491
:101AE40080431360CEE7E38F13F0010F08D122681F
:101AF400536823F480435360E38F5B08E387DBE799
:101B04002268536843F480435360E38F5B080133D6
:101B1400E387D1E72268116811F0400F03D11168FF
:101B240041F04001116021684A6842F020024A6095
:101B340021684A6842F002024A6087E7012385E788
:101B4400012383E702231846704700BF611B000886
:101B54008F1B00086D1B00087047704708B5406A6A
:101B6400FFF7FBFF08BD704708B5406A0268536879
:101B740023F003035360036E43F010030366012351
:101B840080F85D30FFF7EFFF08BD30B583B0054640
:101B9400446AFEF75FFB2B681B6813F0200F23D108
:101BA4002268536823F0200353602268536823F0AB
:101BB40002035360024664212046FFF7A7FE18B1D2
:101BC400236E43F020032366A36833B9019323688B
:101BD400DA6801929B680193019B0023E387012348
:101BE40084F85D30236E23B92046FFF7B5FF03B0B8
:101BF40030BD2046FFF7B7FFF9E7000030B585B0E8
:101C04000446026850689368C3F3801149B913F01D
:101C1400010F06D010F0400F03D0E36C2046984724
:101C240008E013F0020F07D010F0800F04D0236DEA
:101C34002046984705B030BDC3F340151DB911B90E
:101C440013F4807FF6D010F0200FF3D079B194F81C
:101C54005D10C9B2032953D0216E41F004012166FD
:101C640000210091D168009191680091009965B1BB
:101C7400216E41F0010121660021029191680291D7
:101C8400116821F040011160029A13F4807F09D099
:101C9400236E43F0080323660023039323689B68A1
:101CA4000393039B236E002BC4D02268536823F054
:101CB400E0035360012384F85D3010F0030F27D054
:101CC4002268536823F003035360A36D4BB1124A97
:101CD4005A63A06DFEF7E0FB18B1236E43F0400396
:101CE4002366636D002BA5D00B4A5A63606DFEF723
:101CF400D3FB00289ED0236E43F04003236699E76C
:101D040000230193D368019393680193019B91E7A6
:101D14002046FFF728FF8DE7211D000808B5406A1B
:101D24000023A0F84630C387FFF71DFF08BD7047A6
:101D3400704770477047704710B5044603681A69C6
:101D440012F0020F11D0DA6812F0020F0DD06FF00A
:101D540002021A610123037703689B6913F0030FDE
:101D640079D0FFF7E6FF0023237723681A6912F07E
:101D7400040F12D0DA6812F0040F0ED06FF00402D0
:101D84001A610223237723689B6913F4407F68D088
:101D94002046FFF7CEFF0023237723681A6912F049
:101DA400080F12D0DA6812F0080F0ED06FF0080294
:101DB4001A61042323772368DB6913F0030F57D0D8
:101DC4002046FFF7B6FF0023237723681A6912F031
:101DD400100F12D0DA6812F0100F0ED06FF010024C
:101DE4001A61082323772368DB6913F4407F46D004
:101DF4002046FFF79EFF0023237723681A6912F019
:101E0400010F03D0DA6812F0010F3FD123681A6979
:101E140012F0800F03D0DA6812F0800F3DD12368EE
:101E24001A6912F4807F03D0DA6812F0800F3BD174
:101E340023681A6912F0400F03D0DA6812F0400FD9
:101E440039D123681A6912F0200F03D0DA6812F02E
:101E5400200F37D110BDFFF76BFF2046FFF76AFF55
:101E640081E72046FFF764FF2046FFF763FF92E710
:101E74002046FFF75DFF2046FFF75CFFA3E72046FF
:101E8400FFF756FF2046FFF755FFB4E76FF0010256
:101E94001A612046FFF74BFFB8E76FF080021A6122
:101EA400204600F052F9BAE76FF480721A612046B6
:101EB40000F04CF9BCE76FF040021A612046FFF7CE
:101EC4003AFFBEE76FF020021A61204600F03CF9A9
:101ED400C0E700000368324A904212D0B0F1804F4C
:101EE4000FD0A2F5943290420BD002F5806290425A
:101EF40007D002F59632904203D002F5E0529042A8
:101F040003D123F070034A681343254A90421ED03C
:101F1400B0F1804F1BD0A2F59432904217D002F555
:101F24008062904213D002F5963290420FD002F5AF
:101F3400406290420BD002F58062904207D002F5D5
:101F44008062904203D002F50062904203D123F4F0
:101F54004073CA68134323F080034A691343036040
:101F64008B68C3620B6883620D4B984213D003F5F0
:101F7400006398420FD003F5406398420BD003F5F9
:101F84008063984207D003F58063984203D003F539
:101F94000063984201D10B690363012343617047D5
:101FA400002C0140002849D0F8B505460C4690F8AD
:101FB4003D30002B3DD0022385F83D30294651F8B1
:101FC400042B936823F4A03323F007039360286859
:101FD400FFF780FF29688A688E690F6A20681043BA
:101FE40026F4407626F00306A268A36942EA032396
:101FF400334323F47C4323F0FC03E668E26946EAB6
:1020040002261E43226A1303226943EA021333435E
:1020140027F0AA076268646942EA04123A438860B6
:1020240029688B612B681A62012385F83D300020F2
:10203400F8BD80F83C3000F0A5FDBCE701207047F6
:1020440010B401F01F01012303FA01F4036A23EA27
:1020540004030362036A8A40134303625DF8044B7A
:10206400704710B5044661B1042916D0012200213D
:102074000068FFF7E5FF012204212068FFF7E0FF75
:1020840004E0012200210068FFF7DAFF22681368E8
:1020940043F001031360002010BD012204210068F5
:1020A400FFF7CEFFF2E7000090F83C30012B46D05A
:1020B40030B4012380F83C30022380F83D300268BC
:1020C400536895681F4CA24207D004F50064A242ED
:1020D40003D004F5E054A24203D123F470034C6806
:1020E400234323F070030C68234353600368154AA9
:1020F400934216D0B3F1804F13D0A2F59432934299
:102104000FD002F5806293420BD002F596329342CF
:1021140007D002F54062934203D002F58052934205
:1021240004D125F080058A6815439D60012380F859
:102134003D30002380F83C30184630BC7047022004
:10214400704700BF002C0140704770477047000083
:1021540000B585B000F0F0030001C0B243F00C02FA
:102164008DF80C2043F008038DF80D3040F00C037B
:102174008DF80E3040F008008DF80F0064230093B2
:10218400042303AA7D210348FEF746FC05B05DF84D
:1021940004FB00BFF803002000B585B000F0F00395
:1021A4000001C0B243F00D028DF80C2043F0090386
:1021B4008DF80D3040F00D038DF80E3040F009001D
:1021C4008DF80F0064230093042303AA7D210348A0
:1021D400FEF722FC05B05DF804FB00BFF803002005
:1021E40008B528B1012806D0C8B2FFF7B1FF08BD71
:1021F40041F08001F8E741F0C001F5E708B532206D
:10220400FEF72EF83020FFF7A3FF0520FEF728F88D
:102214003020FFF79DFF0120FEF722F83020FFF762
:1022240097FF0A20FEF71CF82020FFF791FF0A20F1
:10223400FEF716F82820FFF78BFF0120FEF710F8B1
:102244000820FFF785FF0120FEF70AF80120FFF7B9
:102254007FFF0120FEF704F80120FEF701F80620B5
:10226400FFF776FF0120FDF7FBFF0C20FFF770FF5F
:1022740008BD10B5044602E00134FFF78DFF207855
:102284000028F9D110BD000010B58AB000240594CF
:1022940006940794089409942A4B5A6942F400223C
:1022A4005A615A6902F400220192019A5A6942F46D
:1022B40080025A615A6902F480020292029A5A69AF
:1022C40042F400325A615A6902F400320392039ACA
:1022D4005A6942F480225A615B6903F480230493AF
:1022E400049B224620214FF09040FEF734FA4FF42D
:1022F40000530593144B0693079405A91348FEF75E
:102304004DF920230593012306930794089405A906
:102314004FF09040FEF742F94FF4806305930C4B65
:102324000693079405A94FF09040FEF737F922462B
:1023340021462820FDF7BAFF2820FDF7EBFF0AB05D
:1023440010BD00BF0010024000003110000800481A
:102354000000111000B583B00A4B5A6942F0010223
:102364005A615B6903F001030193019B002211464A
:102374000F20FDF79BFF0F20FDF7CCFF03B05DF8A6
:1023840004FB00BF0010024030B58DB0002404945B
:10239400069408940A940094019402940F4D104BEF
:1023A4002B606C60AC605023EB602C616C61AC61A1
:1023B40003230393012205920F23079309920B939E
:1023C40003A92846FFF7EEFD0094019402946946A0
:1023D4002846FFF769FE0DB030BD00BF4804002059
:1023E400002C014008B50E480E4B03604FF4827375
:1023F4004360002383604FF4E062C2600361436181
:102404004FF4007282610822C261036243628362F4
:102414000721C16203634263FFF7ABFA08BD00BF43
:10242400940300200038004038B50D4C0D4B236058
:102434000D4B63600025A5600123E36025616561A0
:10244400A561E56125622046FEF788FA2946204603
:10245400FEF7A0FB29462046FEF7CAFB38BD00BFA5
:10246400F8030020005400400E09002010B5044673
:10247400B0F5005F03D0B4F5806F0ED010BD4FF4FB
:1024840000510C48FEF760F902460B4B18702021EE
:102494004FF09040FEF75FF9EDE7084A13780133F7
:1024A400DBB21370064A12789342E7D3034B00223F
:1024B4001A70E3E700080048440400202C000020C0
:1024C400080000201D280AD810B400EB4000044C7A
:1024D40020440171427183715DF8044B7047704769
:1024E4002C000020F0B484B21D2C44D8002A3BD028
:1024F400B1F5B47F01D340F267113B4CA4FB015406
:102504006409A6B2C4EB0414A500491B89B2C2F144
:10251400FF0505FB03F5002D2FDB2D1201FB02F750
:10252400314C84FB07C43C446411C4F1FF0404FB34
:1025340003F4002C23DB2412C1F13B0101FB02F262
:10254400294981FB02711144D217A2EB6112FF32B7
:1025540002FB03F2002A14DB1212042E3BD8DFE83C
:1025640006F0121A222A320000EB40001F4A1044DF
:10257400037143718371F0BC7047FF35CDE7FF34BD
:10258400D9E7FF32E8E700EB40001849084403713B
:1025940042718571EFE700EB4000144A1044047166
:1025A40043718571E7E700EB400010490844057169
:1025B40043718271DFE700EB40000C4A104405715F
:1025C40044718371D7E700EB400008490844027165
:1025D40045718371CFE700EB4000044A1044037156
:1025E40045718471C7E700BF898888882C00002062
:1025F40010B5002407E000231A4619462046FFF7C9
:1026040061FF0134E4B21D2CF5D910BD08B5474B68
:1026140000221A806AE003EB4300C10011444448DD
:102624000144782081F860000132D2B2072A12D81E
:1026340003EB43003E49014448798021114108429B
:10264400E9D103EB4300C10011443948014440205F
:1026540081F86000E8E700220BE003EB4300C100CF
:102664001144083132480144782081F86000013275
:10267400D2B2072A13D803EB43002D490144087949
:10268400802111410842E8D103EB4300C100114409
:10269400083127480144402081F86000E7E7002220
:1026A4000BE003EB4300C100114410312048014406
:1026B400782081F860000132D2B2072A13D803EBE4
:1026C40043001B4901448879802111410842E8D123
:1026D40003EB4300C100114410311548014440206C
:1026E40081F86000E7E70133104A13800F4B1B8821
:1026F4001D2B01D8002299E7002308E003F534716B
:102704000B4A0A44002182F860100133DBB2172B14
:10271400F4D94FF4407207490748FFF787F9064B8D
:10272400586DFDF738FF0128F9D108BD4604002093
:102734002C0000208C000020940300202DE9F0419F
:1027440080460F4616461D4600240DE0FFF750FF55
:102754002B4632463946E0B2FFF7B4FEFFF756FF88
:102764004046FDF77DFD01341D2CEFDDBDE8F08111
:1027740038B50546144AB2F860330133A2F8603321
:10278400002418E004EB44039A000F4BB3F86033C1
:1027940013440E4981FB0321CA18D917C1EB222126
:1027A4004FF4B47202FB1131FF231A4689B220B2EE
:1027B400FFF798FE01341D2CE4DDFFF727FF2846C0
:1027C400FDF74EFD38BD00BF2C000020B7600BB6EE
:1027D40070B506460D46002413E04FF4B47292FB24
:1027E400F5F303FB06F3094981FB030119440912BC
:1027F40002FB1131FF231A4689B220B2FFF772FEA1
:1028040001341D2CE9DDFFF701FF70BDB7600BB685
:10281400F8B50E46174611463046FFF7E1FC124D57
:10282400B5F86203114CA4FB0030C008A4FB0023DC
:10283400DB0803EB83035A00801A80B23030FFF7C1
:10284400ABFC791C3046FFF7CBFCB5F86203A4FB64
:102854000034E40804EB84046300C01A80B230300E
:10286400FFF79AFCF8BD00BF2C000020CDCCCCCCE7
:1028740030B5A7B0242200211DA800F07BFA002463
:102884001794189419941A941B945822214601A859
:1028940000F070FA02251C9501231F931023209346
:1028A40022954FF4004323934FF4802324931CA8D0
:1028B400FEF7DCF90F231793189519941A941B94B7
:1028C400214617A8FEF738FD4FF48153019308946D
:1028D4000E9401A8FEF702FE27B030BD08B5FDF73F
:1028E4009BFCFFF7C5FFFFF7CFFCFFF733FDFFF7B6
:1028F4004BFDFFF777FDFFF797FD3C212A48FFF7D3
:10290400B0FBFFF77BFC2948FFF7B3FC4FF4FA70E8
:10291400FDF7A6FC11E000210120FFF761FC24482B
:10292400FFF7A7FC234C0C220121B4F86203FFF744
:102934006FFF94F86203FFF71BFF1B4B1B685A6A77
:102944001C4BA3F862231B78012B17D0002BE2D079
:10295400022BF2D100210120FFF742FC1648FFF7B9
:1029640088FC144C0C220121B4F86203FFF750FFD9
:102974005021B4F86203FFF72BFFDEE700210120AA
:10298400FFF72EFC0D48FFF774FC0A4C0C220121C2
:10299400B4F86203FFF73CFFFF231A461946B4F864
:1029A4006203FFF7CBFEC8E748040020D82D0008D7
:1029B400E02D00082C000020FC2D0008F02D00085C
:1029C4007047000000B583B00E4B9A6942F00102D3
:1029D4009A619A6902F001020092009ADA6942F05F
:1029E4008052DA61DB6903F080530193019B00227A
:1029F40011460120FDF75AFC0120FDF78BFC03B0C2
:102A04005DF804FB001002402DE9F04188B000237A
:102A14000393049305930693079302681F4B9A420A
:102A240002D008B0BDE8F0811D4C636943F4003363
:102A34006361636903F400330093009B636943F4A7
:102A440080236361636903F480230193019B4FF442
:102A5400004303934FF01208CDF810800127059727
:102A6400032606960425079503A94FF09040FDF729
:102A740095FD80230393CDF810800597069607955E
:102A840003A90848FDF78AFDE36943F40013E361F1
:102A9400E36903F400130293029BC2E7005400406D
:102AA4000010024000040048F0B589B000230393ED
:102AB400049305930693079302682E4B9A4201D020
:102AC40009B0F0BD044603F5EC33DA6942F4804200
:102AD400DA61DA6902F480420092009A5A6942F497
:102AE40080225A615A6902F480220192019A5A6939
:102AF40042F400325A615B6903F400330293029B8F
:102B04004FF4C04303930225049503270697052633
:102B1400079603A91848FDF741FD4FF4006303939A
:102B24000495002505950697079603A94FF0904054
:102B3400FDF734FD1148124B036010234360856098
:102B44008023C3600561456185614FF44053C361CF
:102B5400FDF740FC58B9094B63655C6200221146DD
:102B64002420FDF7A3FB2420FDF7D4FBA8E7FFF7FF
:102B740027FFF0E7003800400004004888040020E4
:102B84005800024000B589B00023039304930593D1
:102B9400069307930268224B9A4202D009B05DF86B
:102BA40004FB03F564439A6942F400629A619A69EA
:102BB40002F400620192019A5A6942F400225A61B5
:102BC4005B6903F400230293029B03230393022310
:102BD4000493079303A91348FDF7E0FC0022114670
:102BE4001820FDF763FB1820FDF794FB0022114623
:102BF4001920FDF75BFB1920FDF78CFB0022114621
:102C04001A20FDF753FB1A20FDF784FB002211461E
:102C14001B20FDF74BFB1B20FDF77CFBBEE700BF31
:102C2400002C0140000800487047FEE7FEE7FEE77D
:102C3400FEE770477047704708B5FDF7FFFA08BD17
:102C440008B5FEF703F808BD08B50248FDF749FCCE
:102C540008BD00BF8804002008B50248FFF76CF8DF
:102C640008BD00BF4804002008B50248FFF764F817
:102C740008BD00BF4804002008B50248FFF75CF80F
:102C840008BD00BF4804002008B50248FFF754F807
:102C940008BD00BF4804002008B50248FEF7AEFF97
:102CA40008BD00BF9403002008B54FF48060FDF711
:102CB40057FD4FF40050FDF753FD08BD054BD3F805
:102CC400882042F47002C3F888204FF000629A60B2
:102CD400704700BF00ED00E0DFF834D0002103E0CE
:102CE4000C4B5B58435004310B480C4B42189A422E
:102CF400F6D30B4A02E0002342F8043B094B9A4204
:102D0400F9D3FFF7DBFF00F011F8FFF7E7FDFEE76B
:102D140000000120102E00080000002010000020F8
:102D240010000020CC040020FEE7000070B50D4E1A
:102D34000D4CA41BA4100025A54209D10B4E0C4C2C
:102D440000F020F8A41BA4100025A54205D170BDF5
:102D540056F8253098470135EEE756F82530984760
:102D64000135F2E7082E0008082E0008082E000896
:102D74000C2E000802440346934200D1704703F826
:102D8400011BF9E7F8B500BFF8BC08BC9E467047C4
:0C2D9400F8B500BFF8BC08BC9E467047B4
:102DA00002030405060708090A0B0C0D0E0F10108C
:102DB0000102030405060708090A0B0C0D0E0F108B
:102DC00000000000000000000102030406070809DB
:102DD00000000000010203044D4F444500000000C4
:102DE0005261696E626F7720202020200000000071
:102DF000526F756E6420706978656C00456E636F04
:082E000064657220202020000F
:042E0800B901000804
:042E0C009501000824
:102E100001000000100000000300000000127A0012
:0400000508002CDDE6
:00000001FF
